{
  "contractName": "EncodeToken",
  "abi": [
    {
      "inputs": [],
      "stateMutability": "nonpayable",
      "type": "constructor"
    },
    {
      "anonymous": false,
      "inputs": [
        {
          "indexed": true,
          "internalType": "address",
          "name": "owner",
          "type": "address"
        },
        {
          "indexed": true,
          "internalType": "address",
          "name": "approved",
          "type": "address"
        },
        {
          "indexed": true,
          "internalType": "uint256",
          "name": "tokenId",
          "type": "uint256"
        }
      ],
      "name": "Approval",
      "type": "event"
    },
    {
      "anonymous": false,
      "inputs": [
        {
          "indexed": true,
          "internalType": "address",
          "name": "owner",
          "type": "address"
        },
        {
          "indexed": true,
          "internalType": "address",
          "name": "operator",
          "type": "address"
        },
        {
          "indexed": false,
          "internalType": "bool",
          "name": "approved",
          "type": "bool"
        }
      ],
      "name": "ApprovalForAll",
      "type": "event"
    },
    {
      "anonymous": false,
      "inputs": [
        {
          "indexed": true,
          "internalType": "address",
          "name": "from",
          "type": "address"
        },
        {
          "indexed": true,
          "internalType": "address",
          "name": "to",
          "type": "address"
        },
        {
          "indexed": true,
          "internalType": "uint256",
          "name": "tokenId",
          "type": "uint256"
        }
      ],
      "name": "Transfer",
      "type": "event"
    },
    {
      "inputs": [
        {
          "internalType": "address",
          "name": "to",
          "type": "address"
        },
        {
          "internalType": "uint256",
          "name": "tokenId",
          "type": "uint256"
        }
      ],
      "name": "approve",
      "outputs": [],
      "stateMutability": "nonpayable",
      "type": "function"
    },
    {
      "inputs": [
        {
          "internalType": "address",
          "name": "owner",
          "type": "address"
        }
      ],
      "name": "balanceOf",
      "outputs": [
        {
          "internalType": "uint256",
          "name": "",
          "type": "uint256"
        }
      ],
      "stateMutability": "view",
      "type": "function",
      "constant": true
    },
    {
      "inputs": [
        {
          "internalType": "uint256",
          "name": "tokenId",
          "type": "uint256"
        }
      ],
      "name": "getApproved",
      "outputs": [
        {
          "internalType": "address",
          "name": "",
          "type": "address"
        }
      ],
      "stateMutability": "view",
      "type": "function",
      "constant": true
    },
    {
      "inputs": [
        {
          "internalType": "address",
          "name": "owner",
          "type": "address"
        },
        {
          "internalType": "address",
          "name": "operator",
          "type": "address"
        }
      ],
      "name": "isApprovedForAll",
      "outputs": [
        {
          "internalType": "bool",
          "name": "",
          "type": "bool"
        }
      ],
      "stateMutability": "view",
      "type": "function",
      "constant": true
    },
    {
      "inputs": [],
      "name": "name",
      "outputs": [
        {
          "internalType": "string",
          "name": "",
          "type": "string"
        }
      ],
      "stateMutability": "view",
      "type": "function",
      "constant": true
    },
    {
      "inputs": [
        {
          "internalType": "uint256",
          "name": "tokenId",
          "type": "uint256"
        }
      ],
      "name": "ownerOf",
      "outputs": [
        {
          "internalType": "address",
          "name": "",
          "type": "address"
        }
      ],
      "stateMutability": "view",
      "type": "function",
      "constant": true
    },
    {
      "inputs": [
        {
          "internalType": "address",
          "name": "from",
          "type": "address"
        },
        {
          "internalType": "address",
          "name": "to",
          "type": "address"
        },
        {
          "internalType": "uint256",
          "name": "tokenId",
          "type": "uint256"
        }
      ],
      "name": "safeTransferFrom",
      "outputs": [],
      "stateMutability": "nonpayable",
      "type": "function"
    },
    {
      "inputs": [
        {
          "internalType": "address",
          "name": "from",
          "type": "address"
        },
        {
          "internalType": "address",
          "name": "to",
          "type": "address"
        },
        {
          "internalType": "uint256",
          "name": "tokenId",
          "type": "uint256"
        },
        {
          "internalType": "bytes",
          "name": "_data",
          "type": "bytes"
        }
      ],
      "name": "safeTransferFrom",
      "outputs": [],
      "stateMutability": "nonpayable",
      "type": "function"
    },
    {
      "inputs": [
        {
          "internalType": "address",
          "name": "operator",
          "type": "address"
        },
        {
          "internalType": "bool",
          "name": "approved",
          "type": "bool"
        }
      ],
      "name": "setApprovalForAll",
      "outputs": [],
      "stateMutability": "nonpayable",
      "type": "function"
    },
    {
      "inputs": [
        {
          "internalType": "bytes4",
          "name": "interfaceId",
          "type": "bytes4"
        }
      ],
      "name": "supportsInterface",
      "outputs": [
        {
          "internalType": "bool",
          "name": "",
          "type": "bool"
        }
      ],
      "stateMutability": "view",
      "type": "function",
      "constant": true
    },
    {
      "inputs": [],
      "name": "symbol",
      "outputs": [
        {
          "internalType": "string",
          "name": "",
          "type": "string"
        }
      ],
      "stateMutability": "view",
      "type": "function",
      "constant": true
    },
    {
      "inputs": [
        {
          "internalType": "uint256",
          "name": "tokenId",
          "type": "uint256"
        }
      ],
      "name": "tokenURI",
      "outputs": [
        {
          "internalType": "string",
          "name": "",
          "type": "string"
        }
      ],
      "stateMutability": "view",
      "type": "function",
      "constant": true
    },
    {
      "inputs": [
        {
          "internalType": "address",
          "name": "from",
          "type": "address"
        },
        {
          "internalType": "address",
          "name": "to",
          "type": "address"
        },
        {
          "internalType": "uint256",
          "name": "tokenId",
          "type": "uint256"
        }
      ],
      "name": "transferFrom",
      "outputs": [],
      "stateMutability": "nonpayable",
      "type": "function"
    },
    {
      "inputs": [
        {
          "internalType": "address",
          "name": "tokenOwner",
          "type": "address"
        },
        {
          "internalType": "string",
          "name": "tokenURI",
          "type": "string"
        }
      ],
      "name": "mintToken",
      "outputs": [
        {
          "internalType": "uint256",
          "name": "",
          "type": "uint256"
        }
      ],
      "stateMutability": "nonpayable",
      "type": "function"
    },
    {
      "inputs": [
        {
          "internalType": "address",
          "name": "tokenOwner",
          "type": "address"
        }
      ],
      "name": "getNfts",
      "outputs": [
        {
          "internalType": "uint256[]",
          "name": "",
          "type": "uint256[]"
        }
      ],
      "stateMutability": "view",
      "type": "function",
      "constant": true
    },
    {
      "inputs": [
        {
          "internalType": "address",
          "name": "oldOwner",
          "type": "address"
        },
        {
          "internalType": "address",
          "name": "newOwner",
          "type": "address"
        },
        {
          "internalType": "uint256",
          "name": "index",
          "type": "uint256"
        }
      ],
      "name": "transferNft",
      "outputs": [],
      "stateMutability": "nonpayable",
      "type": "function"
    }
  ],
  "bytecode": "0x60806040523480156200001157600080fd5b506040518060400160405280600b81526020017f456e636f6465546f6b656e0000000000000000000000000000000000000000008152506040518060400160405280600381526020017f454e430000000000000000000000000000000000000000000000000000000000815250816000908051906020019062000096929190620000b8565b508060019080519060200190620000af929190620000b8565b505050620001cd565b828054620000c69062000197565b90600052602060002090601f016020900481019282620000ea576000855562000136565b82601f106200010557805160ff191683800117855562000136565b8280016001018555821562000136579182015b828111156200013557825182559160200191906001019062000118565b5b50905062000145919062000149565b5090565b5b80821115620001645760008160009055506001016200014a565b5090565b7f4e487b7100000000000000000000000000000000000000000000000000000000600052602260045260246000fd5b60006002820490506001821680620001b057607f821691505b60208210811415620001c757620001c662000168565b5b50919050565b612f1780620001dd6000396000f3fe608060405234801561001057600080fd5b50600436106101005760003560e01c80636352211e11610097578063b88d4fde11610066578063b88d4fde146102d1578063c87b56dd146102ed578063d11eccd61461031d578063e985e9c51461033957610100565b80636352211e1461023757806370a082311461026757806395d89b4114610297578063a22cb465146102b557610100565b806323b872dd116100d357806323b872dd1461019f5780633d02d0c9146101bb57806342842e0e146101eb57806344cc2afe1461020757610100565b806301ffc9a71461010557806306fdde0314610135578063081812fc14610153578063095ea7b314610183575b600080fd5b61011f600480360381019061011a9190611b99565b610369565b60405161012c9190611be1565b60405180910390f35b61013d61044b565b60405161014a9190611c95565b60405180910390f35b61016d60048036038101906101689190611ced565b6104dd565b60405161017a9190611d5b565b60405180910390f35b61019d60048036038101906101989190611da2565b610562565b005b6101b960048036038101906101b49190611de2565b61067a565b005b6101d560048036038101906101d09190611f6a565b6106da565b6040516101e29190611fd5565b60405180910390f35b61020560048036038101906102009190611de2565b610778565b005b610221600480360381019061021c9190611ff0565b610798565b60405161022e91906120db565b60405180910390f35b610251600480360381019061024c9190611ced565b61082f565b60405161025e9190611d5b565b60405180910390f35b610281600480360381019061027c9190611ff0565b6108e1565b60405161028e9190611fd5565b60405180910390f35b61029f610999565b6040516102ac9190611c95565b60405180910390f35b6102cf60048036038101906102ca9190612129565b610a2b565b005b6102eb60048036038101906102e6919061220a565b610a41565b005b61030760048036038101906103029190611ced565b610aa3565b6040516103149190611c95565b60405180910390f35b61033760048036038101906103329190611de2565b610bf5565b005b610353600480360381019061034e919061228d565b610d37565b6040516103609190611be1565b60405180910390f35b60007f80ac58cd000000000000000000000000000000000000000000000000000000007bffffffffffffffffffffffffffffffffffffffffffffffffffffffff1916827bffffffffffffffffffffffffffffffffffffffffffffffffffffffff1916148061043457507f5b5e139f000000000000000000000000000000000000000000000000000000007bffffffffffffffffffffffffffffffffffffffffffffffffffffffff1916827bffffffffffffffffffffffffffffffffffffffffffffffffffffffff1916145b80610444575061044382610dcb565b5b9050919050565b60606000805461045a906122fc565b80601f0160208091040260200160405190810160405280929190818152602001828054610486906122fc565b80156104d35780601f106104a8576101008083540402835291602001916104d3565b820191906000526020600020905b8154815290600101906020018083116104b657829003601f168201915b5050505050905090565b60006104e882610e35565b610527576040517f08c379a000000000000000000000000000000000000000000000000000000000815260040161051e906123a0565b60405180910390fd5b6004600083815260200190815260200160002060009054906101000a900473ffffffffffffffffffffffffffffffffffffffff169050919050565b600061056d8261082f565b90508073ffffffffffffffffffffffffffffffffffffffff168373ffffffffffffffffffffffffffffffffffffffff1614156105de576040517f08c379a00000000000000000000000000000000000000000000000000000000081526004016105d590612432565b60405180910390fd5b8073ffffffffffffffffffffffffffffffffffffffff166105fd610ea1565b73ffffffffffffffffffffffffffffffffffffffff16148061062c575061062b81610626610ea1565b610d37565b5b61066b576040517f08c379a0000000000000000000000000000000000000000000000000000000008152600401610662906124c4565b60405180910390fd5b6106758383610ea9565b505050565b61068b610685610ea1565b82610f62565b6106ca576040517f08c379a00000000000000000000000000000000000000000000000000000000081526004016106c190612556565b60405180910390fd5b6106d5838383611040565b505050565b60006106e6600761129c565b60006106f260076112b2565b90506106fe84826112c0565b610708818461148e565b600860008573ffffffffffffffffffffffffffffffffffffffff1673ffffffffffffffffffffffffffffffffffffffff1681526020019081526020016000208190806001815401808255809150506001900390600052602060002001600090919091909150558091505092915050565b61079383838360405180602001604052806000815250610a41565b505050565b6060600860008373ffffffffffffffffffffffffffffffffffffffff1673ffffffffffffffffffffffffffffffffffffffff16815260200190815260200160002080548060200260200160405190810160405280929190818152602001828054801561082357602002820191906000526020600020905b81548152602001906001019080831161080f575b50505050509050919050565b6000806002600084815260200190815260200160002060009054906101000a900473ffffffffffffffffffffffffffffffffffffffff169050600073ffffffffffffffffffffffffffffffffffffffff168173ffffffffffffffffffffffffffffffffffffffff1614156108d8576040517f08c379a00000000000000000000000000000000000000000000000000000000081526004016108cf906125e8565b60405180910390fd5b80915050919050565b60008073ffffffffffffffffffffffffffffffffffffffff168273ffffffffffffffffffffffffffffffffffffffff161415610952576040517f08c379a00000000000000000000000000000000000000000000000000000000081526004016109499061267a565b60405180910390fd5b600360008373ffffffffffffffffffffffffffffffffffffffff1673ffffffffffffffffffffffffffffffffffffffff168152602001908152602001600020549050919050565b6060600180546109a8906122fc565b80601f01602080910402602001604051908101604052809291908181526020018280546109d4906122fc565b8015610a215780601f106109f657610100808354040283529160200191610a21565b820191906000526020600020905b815481529060010190602001808311610a0457829003601f168201915b5050505050905090565b610a3d610a36610ea1565b8383611502565b5050565b610a52610a4c610ea1565b83610f62565b610a91576040517f08c379a0000000000000000000000000000000000000000000000000000000008152600401610a8890612556565b60405180910390fd5b610a9d8484848461166f565b50505050565b6060610aae82610e35565b610aed576040517f08c379a0000000000000000000000000000000000000000000000000000000008152600401610ae49061270c565b60405180910390fd5b6000600660008481526020019081526020016000208054610b0d906122fc565b80601f0160208091040260200160405190810160405280929190818152602001828054610b39906122fc565b8015610b865780601f10610b5b57610100808354040283529160200191610b86565b820191906000526020600020905b815481529060010190602001808311610b6957829003601f168201915b505050505090506000610b976116cb565b9050600081511415610bad578192505050610bf0565b600082511115610be2578082604051602001610bca929190612768565b60405160208183030381529060405292505050610bf0565b610beb846116e2565b925050505b919050565b610c00838383610778565b6000600182610c0f91906127bb565b9050600860008473ffffffffffffffffffffffffffffffffffffffff1673ffffffffffffffffffffffffffffffffffffffff168152602001908152602001600020600860008673ffffffffffffffffffffffffffffffffffffffff1673ffffffffffffffffffffffffffffffffffffffff1681526020019081526020016000208281548110610ca157610ca06127ef565b5b90600052602060002001549080600181540180825580915050600190039060005260206000200160009091909190915055600860008573ffffffffffffffffffffffffffffffffffffffff1673ffffffffffffffffffffffffffffffffffffffff1681526020019081526020016000208181548110610d2357610d226127ef565b5b906000526020600020016000905550505050565b6000600560008473ffffffffffffffffffffffffffffffffffffffff1673ffffffffffffffffffffffffffffffffffffffff16815260200190815260200160002060008373ffffffffffffffffffffffffffffffffffffffff1673ffffffffffffffffffffffffffffffffffffffff16815260200190815260200160002060009054906101000a900460ff16905092915050565b60007f01ffc9a7000000000000000000000000000000000000000000000000000000007bffffffffffffffffffffffffffffffffffffffffffffffffffffffff1916827bffffffffffffffffffffffffffffffffffffffffffffffffffffffff1916149050919050565b60008073ffffffffffffffffffffffffffffffffffffffff166002600084815260200190815260200160002060009054906101000a900473ffffffffffffffffffffffffffffffffffffffff1673ffffffffffffffffffffffffffffffffffffffff1614159050919050565b600033905090565b816004600083815260200190815260200160002060006101000a81548173ffffffffffffffffffffffffffffffffffffffff021916908373ffffffffffffffffffffffffffffffffffffffff160217905550808273ffffffffffffffffffffffffffffffffffffffff16610f1c8361082f565b73ffffffffffffffffffffffffffffffffffffffff167f8c5be1e5ebec7d5bd14f71427d1e84f3dd0314c0f7b2291e5b200ac8c7c3b92560405160405180910390a45050565b6000610f6d82610e35565b610fac576040517f08c379a0000000000000000000000000000000000000000000000000000000008152600401610fa390612890565b60405180910390fd5b6000610fb78361082f565b90508073ffffffffffffffffffffffffffffffffffffffff168473ffffffffffffffffffffffffffffffffffffffff16148061102657508373ffffffffffffffffffffffffffffffffffffffff1661100e846104dd565b73ffffffffffffffffffffffffffffffffffffffff16145b8061103757506110368185610d37565b5b91505092915050565b8273ffffffffffffffffffffffffffffffffffffffff166110608261082f565b73ffffffffffffffffffffffffffffffffffffffff16146110b6576040517f08c379a00000000000000000000000000000000000000000000000000000000081526004016110ad90612922565b60405180910390fd5b600073ffffffffffffffffffffffffffffffffffffffff168273ffffffffffffffffffffffffffffffffffffffff161415611126576040517f08c379a000000000000000000000000000000000000000000000000000000000815260040161111d906129b4565b60405180910390fd5b611131838383611789565b61113c600082610ea9565b6001600360008573ffffffffffffffffffffffffffffffffffffffff1673ffffffffffffffffffffffffffffffffffffffff168152602001908152602001600020600082825461118c91906127bb565b925050819055506001600360008473ffffffffffffffffffffffffffffffffffffffff1673ffffffffffffffffffffffffffffffffffffffff16815260200190815260200160002060008282546111e391906129d4565b92505081905550816002600083815260200190815260200160002060006101000a81548173ffffffffffffffffffffffffffffffffffffffff021916908373ffffffffffffffffffffffffffffffffffffffff160217905550808273ffffffffffffffffffffffffffffffffffffffff168473ffffffffffffffffffffffffffffffffffffffff167fddf252ad1be2c89b69c2b068fc378daa952ba7f163c4a11628f55a4df523b3ef60405160405180910390a4505050565b6001816000016000828254019250508190555050565b600081600001549050919050565b600073ffffffffffffffffffffffffffffffffffffffff168273ffffffffffffffffffffffffffffffffffffffff161415611330576040517f08c379a000000000000000000000000000000000000000000000000000000000815260040161132790612a76565b60405180910390fd5b61133981610e35565b15611379576040517f08c379a000000000000000000000000000000000000000000000000000000000815260040161137090612ae2565b60405180910390fd5b61138560008383611789565b6001600360008473ffffffffffffffffffffffffffffffffffffffff1673ffffffffffffffffffffffffffffffffffffffff16815260200190815260200160002060008282546113d591906129d4565b92505081905550816002600083815260200190815260200160002060006101000a81548173ffffffffffffffffffffffffffffffffffffffff021916908373ffffffffffffffffffffffffffffffffffffffff160217905550808273ffffffffffffffffffffffffffffffffffffffff16600073ffffffffffffffffffffffffffffffffffffffff167fddf252ad1be2c89b69c2b068fc378daa952ba7f163c4a11628f55a4df523b3ef60405160405180910390a45050565b61149782610e35565b6114d6576040517f08c379a00000000000000000000000000000000000000000000000000000000081526004016114cd90612b74565b60405180910390fd5b806006600084815260200190815260200160002090805190602001906114fd929190611a8a565b505050565b8173ffffffffffffffffffffffffffffffffffffffff168373ffffffffffffffffffffffffffffffffffffffff161415611571576040517f08c379a000000000000000000000000000000000000000000000000000000000815260040161156890612be0565b60405180910390fd5b80600560008573ffffffffffffffffffffffffffffffffffffffff1673ffffffffffffffffffffffffffffffffffffffff16815260200190815260200160002060008473ffffffffffffffffffffffffffffffffffffffff1673ffffffffffffffffffffffffffffffffffffffff16815260200190815260200160002060006101000a81548160ff0219169083151502179055508173ffffffffffffffffffffffffffffffffffffffff168373ffffffffffffffffffffffffffffffffffffffff167f17307eab39ab6107e8899845ad3d59bd9653f200f220920489ca2b5937696c31836040516116629190611be1565b60405180910390a3505050565b61167a848484611040565b6116868484848461178e565b6116c5576040517f08c379a00000000000000000000000000000000000000000000000000000000081526004016116bc90612c72565b60405180910390fd5b50505050565b606060405180602001604052806000815250905090565b60606116ed82610e35565b61172c576040517f08c379a000000000000000000000000000000000000000000000000000000000815260040161172390612d04565b60405180910390fd5b60006117366116cb565b905060008151116117565760405180602001604052806000815250611781565b8061176084611916565b604051602001611771929190612768565b6040516020818303038152906040525b915050919050565b505050565b60006117af8473ffffffffffffffffffffffffffffffffffffffff16611a77565b15611909578373ffffffffffffffffffffffffffffffffffffffff1663150b7a026117d8610ea1565b8786866040518563ffffffff1660e01b81526004016117fa9493929190612d79565b6020604051808303816000875af192505050801561183657506040513d601f19601f820116820180604052508101906118339190612dda565b60015b6118b9573d8060008114611866576040519150601f19603f3d011682016040523d82523d6000602084013e61186b565b606091505b506000815114156118b1576040517f08c379a00000000000000000000000000000000000000000000000000000000081526004016118a890612c72565b60405180910390fd5b805181602001fd5b63150b7a0260e01b7bffffffffffffffffffffffffffffffffffffffffffffffffffffffff1916817bffffffffffffffffffffffffffffffffffffffffffffffffffffffff19161491505061190e565b600190505b949350505050565b6060600082141561195e576040518060400160405280600181526020017f30000000000000000000000000000000000000000000000000000000000000008152509050611a72565b600082905060005b6000821461199057808061197990612e07565b915050600a826119899190612e7f565b9150611966565b60008167ffffffffffffffff8111156119ac576119ab611e3f565b5b6040519080825280601f01601f1916602001820160405280156119de5781602001600182028036833780820191505090505b5090505b60008514611a6b576001826119f791906127bb565b9150600a85611a069190612eb0565b6030611a1291906129d4565b60f81b818381518110611a2857611a276127ef565b5b60200101907effffffffffffffffffffffffffffffffffffffffffffffffffffffffffffff1916908160001a905350600a85611a649190612e7f565b94506119e2565b8093505050505b919050565b600080823b905060008111915050919050565b828054611a96906122fc565b90600052602060002090601f016020900481019282611ab85760008555611aff565b82601f10611ad157805160ff1916838001178555611aff565b82800160010185558215611aff579182015b82811115611afe578251825591602001919060010190611ae3565b5b509050611b0c9190611b10565b5090565b5b80821115611b29576000816000905550600101611b11565b5090565b6000604051905090565b600080fd5b600080fd5b60007fffffffff0000000000000000000000000000000000000000000000000000000082169050919050565b611b7681611b41565b8114611b8157600080fd5b50565b600081359050611b9381611b6d565b92915050565b600060208284031215611baf57611bae611b37565b5b6000611bbd84828501611b84565b91505092915050565b60008115159050919050565b611bdb81611bc6565b82525050565b6000602082019050611bf66000830184611bd2565b92915050565b600081519050919050565b600082825260208201905092915050565b60005b83811015611c36578082015181840152602081019050611c1b565b83811115611c45576000848401525b50505050565b6000601f19601f8301169050919050565b6000611c6782611bfc565b611c718185611c07565b9350611c81818560208601611c18565b611c8a81611c4b565b840191505092915050565b60006020820190508181036000830152611caf8184611c5c565b905092915050565b6000819050919050565b611cca81611cb7565b8114611cd557600080fd5b50565b600081359050611ce781611cc1565b92915050565b600060208284031215611d0357611d02611b37565b5b6000611d1184828501611cd8565b91505092915050565b600073ffffffffffffffffffffffffffffffffffffffff82169050919050565b6000611d4582611d1a565b9050919050565b611d5581611d3a565b82525050565b6000602082019050611d706000830184611d4c565b92915050565b611d7f81611d3a565b8114611d8a57600080fd5b50565b600081359050611d9c81611d76565b92915050565b60008060408385031215611db957611db8611b37565b5b6000611dc785828601611d8d565b9250506020611dd885828601611cd8565b9150509250929050565b600080600060608486031215611dfb57611dfa611b37565b5b6000611e0986828701611d8d565b9350506020611e1a86828701611d8d565b9250506040611e2b86828701611cd8565b9150509250925092565b600080fd5b600080fd5b7f4e487b7100000000000000000000000000000000000000000000000000000000600052604160045260246000fd5b611e7782611c4b565b810181811067ffffffffffffffff82111715611e9657611e95611e3f565b5b80604052505050565b6000611ea9611b2d565b9050611eb58282611e6e565b919050565b600067ffffffffffffffff821115611ed557611ed4611e3f565b5b611ede82611c4b565b9050602081019050919050565b82818337600083830152505050565b6000611f0d611f0884611eba565b611e9f565b905082815260208101848484011115611f2957611f28611e3a565b5b611f34848285611eeb565b509392505050565b600082601f830112611f5157611f50611e35565b5b8135611f61848260208601611efa565b91505092915050565b60008060408385031215611f8157611f80611b37565b5b6000611f8f85828601611d8d565b925050602083013567ffffffffffffffff811115611fb057611faf611b3c565b5b611fbc85828601611f3c565b9150509250929050565b611fcf81611cb7565b82525050565b6000602082019050611fea6000830184611fc6565b92915050565b60006020828403121561200657612005611b37565b5b600061201484828501611d8d565b91505092915050565b600081519050919050565b600082825260208201905092915050565b6000819050602082019050919050565b61205281611cb7565b82525050565b60006120648383612049565b60208301905092915050565b6000602082019050919050565b60006120888261201d565b6120928185612028565b935061209d83612039565b8060005b838110156120ce5781516120b58882612058565b97506120c083612070565b9250506001810190506120a1565b5085935050505092915050565b600060208201905081810360008301526120f5818461207d565b905092915050565b61210681611bc6565b811461211157600080fd5b50565b600081359050612123816120fd565b92915050565b600080604083850312156121405761213f611b37565b5b600061214e85828601611d8d565b925050602061215f85828601612114565b9150509250929050565b600067ffffffffffffffff82111561218457612183611e3f565b5b61218d82611c4b565b9050602081019050919050565b60006121ad6121a884612169565b611e9f565b9050828152602081018484840111156121c9576121c8611e3a565b5b6121d4848285611eeb565b509392505050565b600082601f8301126121f1576121f0611e35565b5b813561220184826020860161219a565b91505092915050565b6000806000806080858703121561222457612223611b37565b5b600061223287828801611d8d565b945050602061224387828801611d8d565b935050604061225487828801611cd8565b925050606085013567ffffffffffffffff81111561227557612274611b3c565b5b612281878288016121dc565b91505092959194509250565b600080604083850312156122a4576122a3611b37565b5b60006122b285828601611d8d565b92505060206122c385828601611d8d565b9150509250929050565b7f4e487b7100000000000000000000000000000000000000000000000000000000600052602260045260246000fd5b6000600282049050600182168061231457607f821691505b60208210811415612328576123276122cd565b5b50919050565b7f4552433732313a20617070726f76656420717565727920666f72206e6f6e657860008201527f697374656e7420746f6b656e0000000000000000000000000000000000000000602082015250565b600061238a602c83611c07565b91506123958261232e565b604082019050919050565b600060208201905081810360008301526123b98161237d565b9050919050565b7f4552433732313a20617070726f76616c20746f2063757272656e74206f776e6560008201527f7200000000000000000000000000000000000000000000000000000000000000602082015250565b600061241c602183611c07565b9150612427826123c0565b604082019050919050565b6000602082019050818103600083015261244b8161240f565b9050919050565b7f4552433732313a20617070726f76652063616c6c6572206973206e6f74206f7760008201527f6e6572206e6f7220617070726f76656420666f7220616c6c0000000000000000602082015250565b60006124ae603883611c07565b91506124b982612452565b604082019050919050565b600060208201905081810360008301526124dd816124a1565b9050919050565b7f4552433732313a207472616e736665722063616c6c6572206973206e6f74206f60008201527f776e6572206e6f7220617070726f766564000000000000000000000000000000602082015250565b6000612540603183611c07565b915061254b826124e4565b604082019050919050565b6000602082019050818103600083015261256f81612533565b9050919050565b7f4552433732313a206f776e657220717565727920666f72206e6f6e657869737460008201527f656e7420746f6b656e0000000000000000000000000000000000000000000000602082015250565b60006125d2602983611c07565b91506125dd82612576565b604082019050919050565b60006020820190508181036000830152612601816125c5565b9050919050565b7f4552433732313a2062616c616e636520717565727920666f7220746865207a6560008201527f726f206164647265737300000000000000000000000000000000000000000000602082015250565b6000612664602a83611c07565b915061266f82612608565b604082019050919050565b6000602082019050818103600083015261269381612657565b9050919050565b7f45524337323155524953746f726167653a2055524920717565727920666f722060008201527f6e6f6e6578697374656e7420746f6b656e000000000000000000000000000000602082015250565b60006126f6603183611c07565b91506127018261269a565b604082019050919050565b60006020820190508181036000830152612725816126e9565b9050919050565b600081905092915050565b600061274282611bfc565b61274c818561272c565b935061275c818560208601611c18565b80840191505092915050565b60006127748285612737565b91506127808284612737565b91508190509392505050565b7f4e487b7100000000000000000000000000000000000000000000000000000000600052601160045260246000fd5b60006127c682611cb7565b91506127d183611cb7565b9250828210156127e4576127e361278c565b5b828203905092915050565b7f4e487b7100000000000000000000000000000000000000000000000000000000600052603260045260246000fd5b7f4552433732313a206f70657261746f7220717565727920666f72206e6f6e657860008201527f697374656e7420746f6b656e0000000000000000000000000000000000000000602082015250565b600061287a602c83611c07565b91506128858261281e565b604082019050919050565b600060208201905081810360008301526128a98161286d565b9050919050565b7f4552433732313a207472616e73666572206f6620746f6b656e2074686174206960008201527f73206e6f74206f776e0000000000000000000000000000000000000000000000602082015250565b600061290c602983611c07565b9150612917826128b0565b604082019050919050565b6000602082019050818103600083015261293b816128ff565b9050919050565b7f4552433732313a207472616e7366657220746f20746865207a65726f2061646460008201527f7265737300000000000000000000000000000000000000000000000000000000602082015250565b600061299e602483611c07565b91506129a982612942565b604082019050919050565b600060208201905081810360008301526129cd81612991565b9050919050565b60006129df82611cb7565b91506129ea83611cb7565b9250827fffffffffffffffffffffffffffffffffffffffffffffffffffffffffffffffff03821115612a1f57612a1e61278c565b5b828201905092915050565b7f4552433732313a206d696e7420746f20746865207a65726f2061646472657373600082015250565b6000612a60602083611c07565b9150612a6b82612a2a565b602082019050919050565b60006020820190508181036000830152612a8f81612a53565b9050919050565b7f4552433732313a20746f6b656e20616c7265616479206d696e74656400000000600082015250565b6000612acc601c83611c07565b9150612ad782612a96565b602082019050919050565b60006020820190508181036000830152612afb81612abf565b9050919050565b7f45524337323155524953746f726167653a2055524920736574206f66206e6f6e60008201527f6578697374656e7420746f6b656e000000000000000000000000000000000000602082015250565b6000612b5e602e83611c07565b9150612b6982612b02565b604082019050919050565b60006020820190508181036000830152612b8d81612b51565b9050919050565b7f4552433732313a20617070726f766520746f2063616c6c657200000000000000600082015250565b6000612bca601983611c07565b9150612bd582612b94565b602082019050919050565b60006020820190508181036000830152612bf981612bbd565b9050919050565b7f4552433732313a207472616e7366657220746f206e6f6e20455243373231526560008201527f63656976657220696d706c656d656e7465720000000000000000000000000000602082015250565b6000612c5c603283611c07565b9150612c6782612c00565b604082019050919050565b60006020820190508181036000830152612c8b81612c4f565b9050919050565b7f4552433732314d657461646174613a2055524920717565727920666f72206e6f60008201527f6e6578697374656e7420746f6b656e0000000000000000000000000000000000602082015250565b6000612cee602f83611c07565b9150612cf982612c92565b604082019050919050565b60006020820190508181036000830152612d1d81612ce1565b9050919050565b600081519050919050565b600082825260208201905092915050565b6000612d4b82612d24565b612d558185612d2f565b9350612d65818560208601611c18565b612d6e81611c4b565b840191505092915050565b6000608082019050612d8e6000830187611d4c565b612d9b6020830186611d4c565b612da86040830185611fc6565b8181036060830152612dba8184612d40565b905095945050505050565b600081519050612dd481611b6d565b92915050565b600060208284031215612df057612def611b37565b5b6000612dfe84828501612dc5565b91505092915050565b6000612e1282611cb7565b91507fffffffffffffffffffffffffffffffffffffffffffffffffffffffffffffffff821415612e4557612e4461278c565b5b600182019050919050565b7f4e487b7100000000000000000000000000000000000000000000000000000000600052601260045260246000fd5b6000612e8a82611cb7565b9150612e9583611cb7565b925082612ea557612ea4612e50565b5b828204905092915050565b6000612ebb82611cb7565b9150612ec683611cb7565b925082612ed657612ed5612e50565b5b82820690509291505056fea26469706673582212204a11ec30779429a82086d414be587c1e9f83ed196e33052568b6173cf7f781d764736f6c634300080a0033",
  "immutableReferences": {},
  "source": "// SPDX-License-Identifier: MIT\npragma solidity ^0.8.0;\n\nimport \"@openzeppelin/contracts/token/ERC721/extensions/ERC721URIStorage.sol\";\nimport \"@openzeppelin/contracts/utils/Counters.sol\";\n\ncontract EncodeToken is ERC721URIStorage {\n    using Counters for Counters.Counter;\n\t\n    Counters.Counter private _tokenIds;\n\n    constructor() ERC721(\"EncodeToken\", \"ENC\") {}\n\n    mapping(address => uint256[]) internal nfts;\n\n    function mintToken(address tokenOwner, string memory tokenURI) public returns (uint256) {\n        _tokenIds.increment();\n\n        uint256 newItemId = _tokenIds.current();\n        _mint(tokenOwner, newItemId);\n        _setTokenURI(newItemId, tokenURI);\n        nfts[tokenOwner].push(newItemId);\n\n        return newItemId;\n    }\n\n    function getNfts(address tokenOwner) public view returns (uint256[] memory) {\n        return nfts[tokenOwner];\n    }\n\n    function transferNft(address oldOwner, address newOwner, uint256 index) public {\n        // Make transfer\n        safeTransferFrom(oldOwner, newOwner, index);\n        // Correct for zero-indexed array\n        uint _index = index-1;\n        nfts[newOwner].push(nfts[oldOwner][_index]);\n        delete nfts[oldOwner][_index];      \n    }\n}",
  "sourcePath": "/Users/a.barry1/Documents/Coding/Bootcamp/Homework/Homework8/contracts/EncodeToken.sol",
  "compiler": {
    "name": "solc",
    "version": "0.8.10+commit.fc410830.Emscripten.clang"
  },
  "schemaVersion": "3.4.4",
  "updatedAt": "2022-01-20T17:47:25.056Z",
  "networkType": "ethereum",
  "devdoc": {
    "kind": "dev",
    "methods": {
      "approve(address,uint256)": {
        "details": "See {IERC721-approve}."
      },
      "balanceOf(address)": {
        "details": "See {IERC721-balanceOf}."
      },
      "getApproved(uint256)": {
        "details": "See {IERC721-getApproved}."
      },
      "isApprovedForAll(address,address)": {
        "details": "See {IERC721-isApprovedForAll}."
      },
      "name()": {
        "details": "See {IERC721Metadata-name}."
      },
      "ownerOf(uint256)": {
        "details": "See {IERC721-ownerOf}."
      },
      "safeTransferFrom(address,address,uint256)": {
        "details": "See {IERC721-safeTransferFrom}."
      },
      "safeTransferFrom(address,address,uint256,bytes)": {
        "details": "See {IERC721-safeTransferFrom}."
      },
      "setApprovalForAll(address,bool)": {
        "details": "See {IERC721-setApprovalForAll}."
      },
      "supportsInterface(bytes4)": {
        "details": "See {IERC165-supportsInterface}."
      },
      "symbol()": {
        "details": "See {IERC721Metadata-symbol}."
      },
      "tokenURI(uint256)": {
        "details": "See {IERC721Metadata-tokenURI}."
      },
      "transferFrom(address,address,uint256)": {
        "details": "See {IERC721-transferFrom}."
      }
    },
    "version": 1
  },
  "userdoc": {
    "kind": "user",
    "methods": {},
    "version": 1
  }
}